:020000040800F2
:100000004809002031020008390200083B020008BC
:100010003D0200083F020008410200080000000005
:100020000000000000000000000000004302000883
:1000300045020008000000004702000849020008CD
:100040004B0200084B0200084B0200084B0200085C
:100050004B0200084B0200084B0200084B0200084C
:100060004B0200084B0200084B0200084B0200083C
:100070004B0200084B0200084B0200084B0200082C
:100080004B0200084B0200084B0200084B0200081C
:100090004B0200084B0200084B0200084B0200080C
:1000A0004B0200084B0200084B0200084B020008FC
:1000B0004B0200084B0200084B0200084B020008EC
:1000C0004B0200084B0200084B0200084B020008DC
:1000D0004B020008B11100084B0200084B02000857
:1000E0004B0200084B0200084B0200084B020008BC
:1000F0004B0200084B0200084B0200084B020008AC
:100100004B0200084B0200084B0200084B0200089B
:100110004B0200084B0200084B0200084B0200088B
:100120004B0200084B0200084B0200084B0200087B
:100130004B0200084B0200084B0200084B0200086B
:100140004B0200084B0200084B0200084B0200085B
:100150004B0200084B0200084B0200084B0200084B
:100160004B0200084B0200084B0200084B0200083B
:100170004B0200084B0200084B0200084B0200082B
:100180004B0200084B02000800F002F800F041F8B2
:100190000AA090E8000C82448344AAF10107DA45E2
:1001A00001D100F036F8AFF2090EBAE80F0013F0F3
:1001B000010F18BFFB1A43F0010318476814000031
:1001C00088140000103A24BF78C878C1FAD85207C2
:1001D00024BF30C830C144BF04680C6070470000C1
:1001E0000023002400250026103A28BF78C1FBD840
:1001F000520728BF30C148BF0B607047642900F028
:100200007F80002070471FB501F0E0F91FBD10B5D9
:1002100010BD00F05CF91146FFF7F5FF01F0B6F9EB
:1002200000F07AF903B4FFF7F2FF03BC00F082F9A3
:100230000948804709480047FEE7FEE7FEE7FEE77A
:10024000FEE7FEE7FEE7FEE7FEE7FEE704480549B6
:10025000054A064B70470000491100088901000853
:1002600048030020480900204805002048050020D8
:100270000FB41CB5074B06AA7B446946009005984D
:1002800000F00DF90020694600F01CF91CBC5DF877
:1002900014FB0000490200002DE9F0410E4604461F
:1002A000002020622046E168884730B3252805D029
:1002B000D4E901219047206A401CF2E7E16820461A
:1002C00000278847050018D0A5F14100192802D859
:1002D00020354FF400673246294620462760FFF755
:1002E0008DFF40B1012804D0F61D26F00706083620
:1002F000D8E7361DD6E72846DAE7206ABDE8F08160
:100300002DE9F0410646002410687529314616A5EE
:1003100010D0AFF30080002802DA404213A507E0B6
:1003200031688A0701D512A502E0490704D511A555
:10033000012401E0AFF3008000210A2206F1240726
:1003400009E0B0FBF2FCB0FBF2F302FB1C00303022
:1003500078541846491C0028F3D123462A463046D3
:10036000BDE8F04100F03CB8000000002D000000A6
:100370002B0000002000000030B505460B462A4641
:1003800013F8014B12F8010B08B1A042F8D01CB1D0
:10039000002802D06D1CF1E7284630BD10B5431C83
:1003A00002E010F8011B71B18107FAD14FF0013260
:1003B00002C88C1A8C4314EAC211F9D0C01A0A067A
:1003C00003D0C01E10BDC01A10BD0A0401D0801E8B
:1003D00010BD0902FCD0401E10BD70477047704729
:1003E0002DE9F0470D4699469246044600F124084F
:1003F0000168880604D5E06921F01001216000E061
:100400000120A84201DD471B00E00027A1697A19FD
:1004100002EB0900081AA0612078C00602D4204629
:10042000AFF30080002608E0D4E901211AF80600A5
:100430009047206A401C761C20624E45F4DB2078F1
:10044000C0060AD52046AFF3008006E0D4E90121BA
:1004500030209047206A401C2062381EA7F1010717
:10046000F4DC07E0D4E9012118F805009047206A80
:10047000401C2062281EA5F10105F3DC2046AFF3E5
:1004800000802078000602D50220BDE8F087012018
:10049000FBE7000001694A1C02610878704700B55B
:1004A0008FB0CDE901310021059105497944CDE9AD
:1004B000031011466846FFF7EFFE0FB000BD0000C5
:1004C000E5FFFFFF0A6802F8010B0A6070477546F6
:1004D00000F02CF8AE4605006946534620F00700B0
:1004E000854618B020B5FFF7B1FEBDE820404FF0BB
:1004F00000064FF000074FF000084FF0000B21F00E
:100500000701AC46ACE8C009ACE8C009ACE8C009DA
:10051000ACE8C0098D46704710B50446AFF30080C3
:100520002046BDE81040FFF77DBE00000048704740
:10053000E402002001491820ABBEFEE726000200BD
:10054000704721B1826842F00102826003E0826854
:1005500022F00102826070470021084A1168084AAF
:100560001140D0E900231A4383681A43C3681A4331
:100570001143044AC2F804137047000004230140E9
:10058000E030FCFF0020014010B50121080200F01E
:10059000C9FC00214FF4807000F0C4FC10BD01467E
:1005A000C86C80B270470246002013680B400BB144
:1005B000012000E00020704730B5024600200023F3
:1005C0005068104C20400D790C6844EA0524204303
:1005D000506090680C4C2040D1E903542C438D6846
:1005E0002C434D7944EA450420439060D06A20F4BE
:1005F00070000C7D641EE4B2234340EA0350D062D5
:1006000030BD0000FFFEFFFCFDF7FFC0F0B5044663
:100610000D4600200021092D11DDE068A5F10A0634
:1006200006EB4607072606FA07F18843A5F10A06F6
:1006300006EB460603FA06F10843E0600CE0206989
:1006400005EB4507072606FA07F1884305EB450643
:1006500003FA06F108432061072A0FDA606B561E81
:1006600006EB86071F2606FA07F18843561E06EB9F
:10067000860605FA06F10843606322E00D2A0FDAC8
:10068000206BD61F06EB86071F2606FA07F1884364
:10069000D61F06EB860605FA06F10843206310E034
:1006A000E06AA2F10D0606EB86071F2606FA07F19F
:1006B0008843A2F10D0606EB860605FA06F108430B
:1006C000E062F0BD816841F08041816070470000C8
:1006D000002004E00021054A1154411C88B2B0F505
:1006E000FA7FF7DB0021024A11807047F0000020FA
:1006F0000000002000BF011EA0F10100FBD17047E7
:1007000010B54FF40051C24800F09DFBC14800787D
:100710000B2815D2DFE800F0061532416574A5B448
:10072000D9E8FB00BCA1BE4800F02CFEBDA1BF482B
:1007300000F028FEBE48FFF7DDFF0120B549087034
:1007400063E1BCA1B64800F01DFEBCA1BC48FFF7A8
:1007500013FE48B1FFF7BCFFBAA1B14800F012FE8A
:100760000220AC49087008E0FFF7B2FFBAA1AC481C
:1007700000F008FE0020A749087046E1BFA1A84884
:1007800000F000FEBFA1A94800F0FCFDA848FFF75B
:10079000B1FF03209F49087037E1BEA1A04800F0D7
:1007A000F1FDBEA1A648FFF7E7FD48B1FFF790FFB6
:1007B000BDA19B4800F0E6FD0420964908700FE0BB
:1007C000BEA19A4800F0DEFD9948FFF793FFFFF7BE
:1007D0007FFFBEA1924800F0D5FD00208D49087032
:1007E00013E1BFA18E4800F0CDFDBFA18F4800F0FE
:1007F000C9FDCA48FFF77EFF05208649087004E15D
:10080000C7A1874800F0BEFD8CA18D48FFF7B4FD5D
:1008100048B1FFF75DFFC4A1814800F0B3FD062099
:100820007C4908701CE08248FFF764FFC5A17C4842
:1008300000F0A8FDCB48FFF75DFFCB480068401CE7
:10084000C949086008460068032809D1C7A174484F
:1008500000F098FD08206F4908700020C249086028
:10086000D3E0C8A16E4800F08DFDC8A16F4800F02C
:1008700089FD6F48FFF73EFF072066490870C4E016
:10088000C5A1674800F07EFDC5A16D48FFF774FD66
:1008900070B9C5A1624800F075FD69490B31604827
:1008A00000F070FDFFF714FF08205A4908700BE0B4
:1008B0005F48FFF71FFFC0A1594800F063FDFFF735
:1008C00007FF0620534908709FE0BFA1544800F07D
:1008D00059FDBFA1554800F055FD5548FFF70AFFE7
:1008E00009204C49087090E0C4A14D4800F04AFD31
:1008F000C4A15348FFF740FD50B1FFF7E9FEC3A183
:10090000474800F03FFD0A20424908701DE01DE005
:100910004748FFF7EFFEC4A1414800F033FDCA4845
:10092000FFF7E8FEC9480068401CC849086008464F
:100930000068032809D1C6A1394800F023FD08202A
:10094000344908700020C14908605EE0C8A13448FD
:1009500000F018FD00F06AFBC749088008460288CD
:10096000C649C748FFF784FCC548FFF717FDC549CE
:10097000086008460068801C08600846C2A102683A
:10098000C548FFF775FCC449284800F0FBFCAE4899
:10099000FFF7B0FEC1A12A48FFF7EEFCA0B1FFF7B8
:1009A00097FEBFA11E4800F0EDFCB5491F4800F0BE
:1009B000E9FCC5A11A4800F0E5FC5848FFF79AFE8B
:1009C0000A20144908701FE0C448FFF793FEC4A131
:1009D000134800F0D7FC08200E490870CBA110483E
:1009E00000F0D0FCD4480068401CD3490860084699
:1009F0000068032808D1D1A1094800F0C3FC0020F9
:100A000004490870CC49086000BF00BF10BD000059
:100A10000004024014000020636173653000000090
:100A20000044004041540D0A000000000010014045
:100A300040420F0063617365310000004F4B0000BE
:100A4000F00000204D6F64756C6520457269736914
:100A50006C64690A000000004D6F64756C2042757B
:100A60006C756E616D6164692C2054656B72617286
:100A70002044656E656E69796F720A006361736503
:100A80003200000041542B43574D4F44453F0D0A5F
:100A90000000000063617365330000002B43574D75
:100AA0004F44453A310000004D4F444520417961A3
:100AB0007220446F6772750A0000000041542B4396
:100AC000574D4F44453D310D0A0000004D4F442025
:100AD0004465676973746972696C69722E0A0000F3
:100AE000636173653400000041542B43574A415001
:100AF0003D2253555045524F4E4C494E452D576956
:100B000046695F38313137222C2266353331413422
:100B10003634212138363639220D0A0080841E00F1
:100B200063617365350000004D6F64656D6520423B
:100B300061676C616E746920796170696C64690ABF
:100B4000000000004D6F64656D65204261676C6157
:100B50006E74692042656B6C656E69796F722E0ADE
:100B600000000000404B4C000C0000204D6F6465FD
:100B70006D65206261676C616E696C616D6164694D
:100B80000A000000636173653600000041542B4386
:100B9000494653520D0A0000636173653700000037
:100BA0004552524F52000000416C696E616E2049FF
:100BB00050203D200A00000054656B726172204491
:100BC000656E652E0A0000006361736538000000E1
:100BD00041542B43495053544152543D22544350A5
:100BE000222C223138342E3130362E3135332E310D
:100BF0003439222C38300D0A00000000636173651F
:100C000039000000434F4E4E45435400536974650C
:100C100020696C65206261676C616E7469206B7518
:100C200072756C64750A0000736974657965204299
:100C300061676C616E74692042656B6C656E697981
:100C40006F722E0A000000008096980008000020B5
:100C5000536974657965204261676C616E746920BF
:100C60006B7572756C616D6164692E0A000000001D
:100C7000636173653130000002000020D815000860
:100C8000280000200400002041542B4349505345C4
:100C90004E443D25640D0A008C0000203E000000FB
:100CA00047F66E646572696C656E206461746120DC
:100CB000757A756E6C756775206B6162756C2065F1
:100CC00064696C64690A0000446174612067F66EAF
:100CD000646572696C64690A00000000C0C62D007A
:100CE00067F66E646572696C656E2064617461207C
:100CF000757A756E6C756775206B6162756C2065B1
:100D000064696C6D6564690A00000000536974656C
:100D100079652079656E6964656E206261676C61D2
:100D20006E696C6D61796120E7616C6973696C69EA
:100D3000796F720A00000000100000204261676CA9
:100D4000616E7469206B7572756C616D6164692E7A
:100D50000A20417961726C6172206B6F6E74726FE0
:100D60006C206564696C6563656B0A00F0B50A46C2
:100D700000210023002400BF3DE0012505FA01F316
:100D8000156805EA03049C4234D105684F00032628
:100D9000BE40B543056015794E00B5400668354341
:100DA00005601579012D02D01579022D16D18568BF
:100DB0004F000326BE40B543856055794E00B540CF
:100DC000866835438560456801268E40B543456099
:100DD000456896798E40B6B235434560C5684F0088
:100DE0000326BE40B543C560D5794E00B540C66800
:100DF0003543C560491C1029BFD3F0BDF0B50023B1
:100E000000244D07ED0E02FA05F3CE1000F1200587
:100E100055F826504E07F70E0F26BE40B543CF10AB
:100E200000F1200646F82750CE1000F1200555F8B5
:100E3000265045EA0304CE1000F1200545F826406F
:100E4000F0BD4183704701837047000070B50021F9
:100E500000230F22C4781CB3174C246804F4E06408
:100E6000C4F5E064C4F30721C1F10404E3B20A410C
:100E700044789C40E1B28478144021430C07210E51
:100E80000E4C05786155047804F01F050124AC4030
:100E900005786D11AD0005F1E025C5F8004109E0C8
:100EA000047804F01F050124AC40054D0678761146
:100EB00045F8264070BD00000CED00E000E400E0C5
:100EC00080E100E029B1064A12680243044B1A602F
:100ED00004E0034A12688243014B1A607047000025
:100EE0003038024029B1064A12680243044B1A60A6
:100EF00004E0034A12688243014B1A607047000005
:100F00004038024029B1064A12680243044B1A6075
:100F100004E0034A12688243014B1A6070470000E4
:100F20004438024029B1064A12680243044B1A6051
:100F300004E0034A12688243014B1A6070470000C4
:100F400024380240F0B500210022002402250026AA
:100F50000223324F3F6807F00C0121B1042905D06C
:100F6000082937D105E02E4F076036E02D4F076086
:100F700033E02A4F3F1F3F68C7F38056274F3F1F7C
:100F80003F6807F03F036EB1264FB7FBF3F7DFF87A
:100F90008CC0ACF1040CDCF800C0CCF3881C07FB5F
:100FA0000CF40CE01E4FB7FBF3F7DFF870C0ACF1A8
:100FB000040CDCF800C0CCF3881C07FB0CF4174FC2
:100FC0003F1F3F68C7F301477F1C7D00B4FBF5F767
:100FD000076002E0124F076000BF00BF0F4F3F687D
:100FE00007F0F0010909104F7A5C0768D7404760A5
:100FF0000A4F3F6807F4E051890A0B4F7A5C476853
:10100000D7408760054F3F6807F46041490B064FA2
:101010007A5C4768D740C760F0BD000008380240DE
:101020000024F40000127A001500002010B50323FC
:10103000012200210848FFF7E9FA0748FFF742FBC1
:1010400000BF02210448FFF7AEFA0028F9D0024899
:10105000FFF7A5FA10BD0000002001400CB50020EC
:10106000019000903448006840F4803032490860B4
:1010700000BF3148006800F4003000900198401C27
:101080000190009818B90198B0F5A04FF1D12A4805
:10109000006800F4003010B10120009001E0002051
:1010A00000900098012846D123484030006840F065
:1010B00080502149403108602048006840F4404099
:1010C0001E4908601C48083000681B490831086048
:1010D0000846006840F4004008600846006840F494
:1010E000A05008601648091F0860081F006840F0FB
:1010F0008070091F086000BF0F48006800F0007092
:101100000028F9D040F205700E4908600A480830FE
:10111000006820F0030008490831086008460068AC
:1011200040F00200086000BF03480830006800F08B
:101130000C000828F8D10CBD0038024000700040B7
:1011400019544007003C024010B51548006840F4AF
:101150007000134908601348006840F0010011490D
:10116000086000200F49083108600E4800680E49E9
:1011700008400C4908600D48091D0860081F0068F8
:1011800020F48020091F0860002006490C31086007
:10119000FFF764FF4FF0006001498039086010BD1F
:1011A00088ED00E000380240FFFFF6FE103000241A
:1011B00010B540F225510A4800F026F878B10849E8
:1011C0008988C8B20749088040B10749074A128890
:1011D000885406490988491C044A118000BF10BD83
:1011E0000010014004440040F000002000000020F6
:1011F00021B1828942F40052828104E082894DF655
:10120000FF731A408281704770B5024600240023A4
:101210000025002040F66A16B14200D100BFC1F39C
:10122000421501F01F03012606FA03F3012D02D136
:101230009689334006E0022D02D1168A334001E040
:10124000968A33400C12012606FA04F416883440BC
:1012500013B10CB1012000E0002070BDF0B50346D1
:10126000002400260025002040F66A17B94200D16C
:1012700000BF1846C1F3421401F01F06012707FA08
:1012800006F5012C01D10C3004E0022C01D1103004
:1012900000E014301AB107682F43076002E00768C6
:1012A000AF430760F0BD00002DE9FF4705460E463D
:1012B0000024A14600BFA046B08900B100BF2C8A1F
:1012C00024F44054F08804432C82AC8941F20C6031
:1012D0008443B08831890843718908430443AC8151
:1012E000AC8A24F44074B0890443AC826846FFF7AA
:1012F00029FE2048854202D01F48854202D1DDF8F0
:101300000C9001E0DDF80890A88900F4004040B19D
:1013100009EBC90000EB091031684900B0FBF1F797
:1013200007E009EBC90000EB091031688900B0FB48
:10133000F1F76420B7FBF0F004012009642101FB00
:101340001078A88900F4004040B1322000EBC800BA
:10135000B0FBF1F000F00700044308E0322000EB9E
:1013600008106421B0FBF1F000F00F0004432C8161
:10137000BDE8FF870010014000140140C1F30802DE
:101380008280704770B505460C460BE000BF288888
:1013900000F040000028FAD021782846FFF7EEFF41
:1013A00014F8010B20780028F0D170BD00B585B08D
:1013B00001211020FFF7A6FD01214804FFF792FD4F
:1013C0004FF4E13001900020ADF810000C20ADF892
:1013D0000E000020ADF80C00ADF80A00ADF80800D2
:1013E00001A91A48FFF760FF4FF4E1300190002097
:1013F000ADF810000820ADF80E000020ADF80C008C
:10140000ADF80A00ADF8080001A91148FFF74CFF3C
:1014100001210F48FFF7ECFE012240F225510B4855
:10142000FFF71CFF25208DF8000000208DF801003B
:101430008DF8020001208DF803006846FFF706FDD5
:1014400001210248FFF7D4FE05B000BD00100140A5
:10145000004400401CB501210220FFF733FD0121AB
:101460000846FFF72FFD072206212748FFF7C6FC95
:10147000072211462448FFF7C1FCC020009002203B
:101480008DF8040000208DF8060001208DF807007B
:1014900003208DF8050069461B48FFF767FC07220B
:1014A00002211A48FFF7AAFC072203211748FFF779
:1014B000A5FC0C20009002208DF8040000208DF87F
:1014C000060001208DF8070003208DF8050069460D
:1014D0000E48FFF74BFC4FF40050009001208DF8B0
:1014E000040000208DF8060003208DF80500002080
:1014F0008DF8070069460448FFF738FC4FF40051A7
:101500000148FFF79EFC1CBD0004024000000240A1
:1015100000B58DB001210802FFF7F4FC0121084657
:10152000FFF7D0FC03208DF8080001200190002077
:101530008DF80A008DF80B0001A91248FFF716FC80
:10154000FFF722F8002009904FF480300A9009A894
:10155000FFF702F800200790039001208DF811009A
:101560000020059001208DF8200000208DF810004B
:1015700003A90548FFF720F801210348FEF7E1FF22
:101580000DB000BD0000024000200140FFF7DCFD6F
:10159000FFF760FFFFF70AFFFFF7BAFF04A10A4851
:1015A000FFF7F0FEFFF794F801E0FFF7A9F8FCE77A
:1015B00020657370383236362064656E656D65213E
:1015C0002121200D0A000000004400404FF040702F
:1015D000E1EE100A704700004745542068747470AB
:1015E000733A2F2F6170692E7468696E6773706526
:1015F000616B2E636F6D2F7570646174653F6170F0
:10160000695F6B65793D4457494B345A535559448A
:10161000373658384149266669656C64313D256422
:101620000D0A0000441600080000002028000000F9
:10163000C40100086C1600082800002020090000E2
:10164000E0010008000000000000000000000000B1
:101650000000000000000000000000000001020384
:0C16600004010203040607080900000052
:0400000508000231BC
:00000001FF
